:100000000C945D000C9485000C9485000C94850084
:100010000C9485000C9485000C9485000C9485004C
:100020000C9485000C9485000C9485000C9485003C
:100030000C9485000C9485000C9485000C9485002C
:100040000C9482020C9485000C9485000C9485001D
:100050000C9485000C9485000C9485000C9485000C
:100060000C9485000C94850000000008000201003B
:100070000003040700000000000000000000000072
:10008000250028002B0000000000240027002A0083
:10009000040404040404040402020202020203032E
:1000A0000303030301020408102040800102040836
:1000B0001020010204081020390311241FBECFEFC5
:1000C000D8E0DEBFCDBF11E0A0E0B1E0EEEBF6E09E
:1000D00002C005900D92A434B107D9F721E0A4E441
:1000E000B1E001C01D92A536B207E1F710E0CDE501
:1000F000D0E004C02197FE010E945703CC35D10700
:10010000C9F70E94CC020C945D030C94000090E0AF
:10011000FC01EC55FF4F249180579F4FFC018491C7
:10012000882399F090E0880F991FFC01EA57FF4F50
:10013000A591B491FC01E458FF4F859194918FB73C
:10014000F894EC91E22BEC938FBF089590E0FC01C2
:10015000E859FF4F2491FC01EC55FF4F3491FC010D
:10016000E057FF4FE491EE23C9F0222339F023300A
:1001700001F1A8F4213019F1223029F1F0E0EE0F5D
:10018000FF1FE458FF4FA591B4918FB7F894EC91FD
:10019000611126C030953E233C938FBF08952730D0
:1001A000A9F02830C9F0243049F7809180008F7D74
:1001B00003C0809180008F7780938000DFCF84B56B
:1001C0008F7784BDDBCF84B58F7DFBCF8091B0006E
:1001D0008F778093B000D2CF8091B0008F7DF9CF20
:1001E0003E2BDACFAF92BF92CF92DF92EF92FF9287
:1001F0000F931F93CF93DF936C017B018B01040F4F
:10020000151FEB015E01AE18BF08C017D10759F0EA
:100210006991D601ED91FC910190F081E02DC6012C
:100220000995892B79F7C501DF91CF911F910F9126
:10023000FF90EF90DF90CF90BF90AF90089508951A
:1002400090E080E00895FC0101900020E9F73197EB
:10025000AF01481B590BBC018DE491E00C94F200F6
:10026000CF93DF93EC0160E08E810E94A60061E0F5
:100270008E810E94A60060E08E810E94A6008BE81D
:1002800091E00197F1F7DF91CF910895CF92DF923E
:10029000EF92FF920F931F93CF93DF936C017C013A
:1002A00087E0E80EF11CD0E0C0E0062F10E0B801B6
:1002B0000C2E02C0759567950A94E2F76170F701FC
:1002C00081917F010E94A6002196C430D10579F763
:1002D000C601DF91CF911F910F91FF90EF90DF90BA
:1002E000CF900C943001CF92DF92EF92FF920F9358
:1002F0001F93CF93DF93EC01F62E642F8C810E9425
:10030000A6008D818F3F19F060E00E94A6000F2D9E
:1003100010E08F8584FF25C06E0187E0C80ED11CD8
:10032000F12CE12CB8010E2C02C0759567950A944A
:10033000E2F76170F60181916F010E94A600FFEF64
:10034000EF1AFF0A88E0E816F10461F7CE01DF91A9
:10035000CF911F910F91FF90EF90DF90CF900C9471
:100360003001B80184E0759567958A95E1F7CE0173
:100370000E9446016F2DCE01DF91CF911F910F9109
:10038000FF90EF90DF90CF900C94460140E0682FF3
:100390008DE491E00C947301CF93DF93813029F0C9
:1003A00090915C01986090935C0180936001109241
:1003B000610180E48093620180E18093630180E5C4
:1003C00080936401809151010E94870080915201C5
:1003D0008F3F11F00E948700809153010E94870097
:1003E000CDE4D1E09E012D54314080915C0184FD2B
:1003F0000AC084E090E02196281739073CF48E81EA
:100400000E948700EFCF88E090E0F5CF8BE39DE07E
:100410000197F1F760E0809151010E94A60060E031
:10042000809153010E94A600809152018F3F19F0E4
:1004300060E00E94A60080915C0184FD39C063E009
:100440008DE491E00E944601CBE4D6E4CE01019711
:10045000F1F763E08DE491E00E9446012197F1F706
:1004600063E08DE491E00E94460183E592E001970C
:10047000F1F762E08DE491E00E94460180915C0119
:1004800080620E94C60184E080935D018CE00E943E
:10049000C60181E00E94C6018BE39FE10197F1F75D
:1004A00082E080935E0186E0DF91CF910C94C601DB
:1004B00080620E94C6018BE496E40197F1F7809177
:1004C0005C0180620E94C60183E592E00197F1F72A
:1004D00080915C0180620E94C601D0CF9091600142
:1004E000891710F08FEF890FE82FF0E0E35BFE4FE4
:1004F000848980680C94C60141E00E94730181E008
:1005000090E008951F920F920FB60F9211242F932F
:100510003F938F939F93AF93BF93809149019091A5
:100520004A01A0914B01B0914C013091480123E068
:10053000230F2D3758F50196A11DB11D20934801B9
:100540008093490190934A01A0934B01B0934C01D1
:100550008091440190914501A0914601B0914701DD
:100560000196A11DB11D8093440190934501A09374
:100570004601B0934701BF91AF919F918F913F91F9
:100580002F910F900FBE0F901F90189526E8230F04
:100590000296A11DB11DD2CF789484B5826084BD2E
:1005A00084B5816084BD85B5826085BD85B5816077
:1005B00085BD80916E00816080936E0010928100F5
:1005C00080918100826080938100809181008160B0
:1005D0008093810080918000816080938000809171
:1005E000B10084608093B1008091B00081608093FD
:1005F000B00080917A00846080937A0080917A00C4
:10060000826080937A0080917A00816080937A0082
:1006100080917A00806880937A001092C10084E013
:100620000E94CC0180E00E946E028CE091E00E946A
:10063000230181E00E946E0288E191E00E94230183
:1006400087E291E00E94230182E00E946E028AE22A
:1006500091E00E94230183E00E946E0282E391E018
:100660000E942301C0E0D0E02097F1F30E94000037
:10067000FBCFEDE4F1E01382128284E091E09183FC
:1006800080838CE084838FEF85838BE0868385E095
:10069000878384E0808783E0818782E08287138676
:1006A000148615861686178681E00C94CC01EE0F11
:0E06B000FF1F0590F491E02D0994F894FFCF00
:1006BE00000000007C02F20020011F0154616D69F0
:1006CE006D2041686D6564004261746368203A2054
:1006DE004461792D3730000D0A00526F6C6C3A313F
:1006EE003500636F757273653A2050657269666581
:0406FE0072616C00B9
:00000001FF
